:1000000000800020BD010000A16E0000596E0000BC
:10001000596E0000596E0000596E0000596E0000C4
:10002000596E0000596E0000596E0000A16E00006C
:10003000A16E0000596E0000F9850000FD860000E9
:10004000A16E0000A16E0000A16E0000A16E000074
:10005000A16E0000A16E0000A16E0000A16E000064
:10006000A16E0000A16E0000A16E0000A16E000054
:10007000A16E0000A16E0000A16E0000A16E000044
:10008000A16E0000A16E0000A16E0000A16E000034
:10009000A16E0000A16E0000A16E0000A16E000024
:1000A000A16E0000A16E0000A16E0000A16E000014
:1000B000A16E0000A16E0000A16E0000A16E000004
:1000C000A16E0000A16E0000A16E0000A16E0000F4
:1000D000A16E0000A16E0000A16E0000A16E0000E4
:1000E000A16E0000A16E0000A16E0000A16E0000D4
:1000F000A16E000089890000A16E0000B58A000091
:10010000A16E0000E18B0000A16E0000A16E000056
:10011000A16E0000A16E0000A16E0000A16E0000A3
:10012000A16E0000A16E0000A16E0000A16E000093
:10013000A16E0000A16E0000A16E0000A16E000083
:10014000A16E0000A16E0000A16E0000A16E000073
:10015000E9870000FD870000118800002588000065
:10016000A16E00001D770000A16E0000A16E0000CE
:10017000A16E0000A16E0000A16E0000A16E000043
:10018000A16E0000A16E0000A16E0000A16E000033
:10019000A16E0000A16E0000A16E0000A16E000023
:1001A000A16E0000A16E0000A16E0000A16E000013
:1001B000A16E0000A16E0000A16E0000564B4CF233
:1001C000205210B51A804DF628121A8000BF00BFC9
:1001D00006F06AFE514B4FF010621A60504A9A6066
:1001E000504ADA60504A136813F4807304D14F49BF
:1001F0000B604FF4A85313604D4B1A78110703D5C9
:100200001A7842F008021A704A4B4B492A221A7097
:100210004A4A4B4B8B4204D252F8040F43F8040B6A
:10022000F8E7484B484900228B4202D243F8042B9E
:10023000FAE74649464A002352F8230041F82300D2
:1002400001336F2BF8D1434B434A802103F8011B44
:100250009342FBD1414B3D4A1A60414B8A221A70AE
:10026000A3F5805324225A70A0221A709A7992071B
:10027000FCD59A79D406FCD43A4A937903F00C035E
:10028000082B384BF9D103221A714C225A719A79F2
:100290009006FCD5334A9179324B4906FBD5324A58
:1002A0004FF0017111600421516020221A709A7977
:1002B00002F00C020C2AFAD12C4B2D4A1A602D4B5D
:1002C0002D4A1A6000225A60072243F8042C2B4A58
:1002D000C3F80C2D62B607F0D7F8144B1B68DA0789
:1002E00005D5274806F0C4FE264B274A1A60274B3F
:1002F0001B785B0609D5234C234B22689A4204D114
:100300001F4806F0B5FE0023236009F06BF806F0E5
:10031000D1FD08F0D3FAFEE70E20054030800440FE
:10032000823F04000100002B10D0034014D0034092
:1003300002D0074000E00740680A0020141D0100B9
:100340002087FF1F680A00207C3B00200082FF1FDF
:100350000000000000E400E05FE400E008ED00E0E1
:1003600000500640004006404480044004800440A1
:10037000C010050014E000E07F32020000002020E1
:1003800001914E5E1CE00340A5C3945A00F0074063
:10039000FFFFFFFFFFFFFFFFFFFFFFFFFFFFFFFF6D
:1003A000FFFFFFFFFFFFFFFFFFFFFFFFFFFFFFFF5D
:1003B000FFFFFFFFFFFFFFFFFFFFFFFFFFFFFFFF4D
:1003C000FFFFFFFFFFFFFFFFFFFFFFFFFFFFFFFF3D
:1003D000FFFFFFFFFFFFFFFFFFFFFFFFFFFFFFFF2D
:1003E000FFFFFFFFFFFFFFFFFFFFFFFFFFFFFFFF1D
:1003F000FFFFFFFFFFFFFFFFFFFFFFFFFFFFFFFF0D
:10040000FFFFFFFFFFFFFFFFFFFFFFFFDEF9FFFF23
:1004100010B5054C237833B9044B13B10448AFF33E
:1004200000800123237010BD680A00200000000036
:10043000181D0100084B10B51BB108490848AFF35F
:1004400000800848036803B910BD074B002BFBD0A0
:10045000BDE81040184700BF000000006C0A0020F3
:10046000181D0100680A00200000000010B50446B5
:1004700008F098F9204610BD224B1B6813F080034A
:100480003CD0F0B5204BDFF8D8E01A781F4C204B59
:1004900020482149246804604FF0010CCEF800C0C8
:1004A00040F6FF7EC3F800E000230B601B4F1C4E9C
:1004B0001C4D1D4C1D481E493B6033602B60236062
:1004C00003600B601B4F1C4E1C4D1D4C1D481E49EC
:1004D0003B6033602B60236003600B600AB11B4AF2
:1004E00013601B4A1B4D1C4C1C49002301202B7020
:1004F00023709370537013700860F0BD184A136036
:10050000704700BF90F00F40A43500203034002029
:1005100090340020EC0A0020003400202435002014
:10052000083500201C0B0020403700202837002011
:1005300004370020F4370020E0360020C0360020C9
:10054000983600207836002038360020A40A002093
:1005500050350020C4370020B02B0020C8340020C4
:10056000E8370020104B10B51868104C4FF07C5144
:1005700008F020FD4FF0814108F01CFD08F0E0FE7E
:100580000B4B0C4A1B68126860619B10C3F58063BB
:10059000134440F27F729342A8BF134623EAE373E9
:1005A0001B01236110BD00BFE0370020A40A00201A
:1005B000F03700208C380020F8B5354B354E1D6AD9
:1005C0007580582575705D69B5801D69F580DD6899
:1005D00035815D6A7581DD69B5819D69F5819D68AB
:1005E000358293E820402C4F2C4C2D482D492E4A23
:1005F0002E4B097812783F7824780078B58202254E
:10060000A6F812E086F8231086F8242086F82070D9
:1006100086F8214086F8220035701868244F254C52
:1006200008F0B4FE2449254A254BF0822548096884
:1006300012681B683F68248837837483B183F28310
:10064000C6F825300068204C08F0A0FE1F49204A5B
:10065000204BD4F800E00F6811781A78C6F829000A
:10066000032328463446C6F82DE0C6F8317086F8D4
:10067000351086F8362086F8373006F1370501E068
:1006800014F8010F07F01AFFAC42F9D1F8BD00BF12
:10069000D4340020B42B0020040B0020180B0020C1
:1006A000B12B0020B22B0020483400207003002022
:1006B0001C38002078350020F03700209C0A0020EC
:1006C00068370020E0370020C4FFFF1F6C35002092
:1006D000963500200C36002038B5054D012402E087
:1006E00007F036FE2C7007F057FE0028F8DC38BD06
:1006F0002838002008B5002006F06CFB294B19783B
:10070000814202D0002006F07FFB274B1B68002BA4
:1007100047D0012006F05EFB244B1978884202D0B6
:10072000012006F071FB022006F054FB204B1978E3
:10073000884202D0022006F067FB032006F04AFB45
:100740001C4B1978884202D0032006F05DFB042080
:1007500006F040FB184B1978884202D0042006F0BE
:1007600053FB052006F036FB144B1978884202D063
:10077000052006F049FB062006F02CFB104B1978EB
:10078000884202D0062006F03FFB072006F022FB3D
:100790000C4B1978884204D00720BDE8084006F0C9
:1007A00033BB08BD9635002064340020040B0020C4
:1007B000180B0020B12B0020F00A00202238002066
:1007C000B22B0020A435002038B5104B1B680A203E
:1007D000ABB106F01BFA0E4B0E4C1D680E4B20629F
:1007E00013F8250006F012FA44F82500072006F059
:1007F0000DFA6061062006F009FA206138BD06F0A6
:1008000005FA034B034C1D68044BE8E764340020F1
:10081000882B0020D434002028B1000004EE000012
:1008200038B53B4B1B6833BB3A4B3B493B4A1878C6
:1008300009783B4B127853F8300053F8311053F8D5
:10084000322090F8005291F80032364992F8002296
:10085000354C36480D70B3FA83F1B2FA82F3490988
:100860005B0921700370B3FA83F35B09304A03EB31
:100870004103137038BD2F4B1B7823B12A4A2B4BF1
:1008800011781B78EFE72C4805F0DCFF60BB2B48A4
:1008900005F0D8FFC0B9254C294805F0D3FF18B999
:1008A000214A23781178DEE7254805F0FBFF1E4A30
:1008B00050B3117823482378B1FA81F1490942F203
:1008C000107411700460CEE71C48184C05F0EAFF64
:1008D0000028E1D023781B4AB3FA83F35B0942F284
:1008E000107123701160D7E7134805F0DBFF002873
:1008F000CDD00C4A13491378B3FA83F35B0942F263
:10090000107013700860C2E723781178ABE700BF5E
:10091000643400209C020020E8020020E000002057
:10092000881B0100B22B0020F00A00202238002092
:100930000C36002020380020C83700201836002050
:10094000342B002078380020F8B5A44B1B681BB965
:10095000A34B41F288321A60A24BA348A34F1C78E4
:10096000A34AA44D00233B70C360836043600360CF
:10097000A14B4FF07E510126D1602E7091605160E5
:1009800011601B7864B9072B09D8DFE813F0670002
:100990009C002500250012015100E7008200F8BDEF
:1009A000072BFCD8DFE813F00800A8002E002E006B
:1009B00008004400C100F300904807F0F3FE904B9C
:1009C0001B68002B04DB8F4A591E914240F2FA80CB
:1009D0008D4B20221A60F8BD884807F0E3FE884B53
:1009E0001B68002BF4DB874A591E9142F0D803EBB9
:1009F00043021201013A232AEAD984497F4807F0C9
:100A000087FEE5E77D4807F0CDFE7D4B1B68002B98
:100A1000DEDB7C4A591E9142DAD803EB4302120115
:100A2000013A232AD4D97A49744807F071FECFE7F6
:100A3000724807F0B7FE724B1B68002BC8DB714A87
:100A4000591E9142C4D803EB43021201013A232AF2
:100A5000BED97049694807F05BFEB9E7674807F0FF
:100A6000A1FE674B6C481B686C49002293424261AF
:100A70004A61ADDB634A591E9142A9D803EB430298
:100A80001201013A232AA3D965495C4807F040FEC8
:100A90009EE75A4807F086FE594B1B68002B0DDB7A
:100AA000584A591E914209D803EB43021201013AF8
:100AB000232A03D95B49514807F02AFE524B40F2E2
:100AC000FF121A60F8BD4D4807F06CFE4C4B1B68D6
:100AD000002BFFF67DAF4B4A591E91423FF678AF8F
:100AE00003EB43021201013A232A7FF671AF4E490C
:100AF000424807F00DFE6BE7404807F053FE404BBD
:100B00001B68002BFFF664AF3E4A591E91423FF628
:100B10005FAF03EB43021201013A232A7FF658AF7D
:100B20004249364807F0F4FD52E7344807F03AFEF0
:100B3000334B1B68002BFFF64BAF324A591E9142D4
:100B40003FF646AF03EB43021201013A232A7FF638
:100B50003FAF3749294807F0DBFD39E7274807F061
:100B600021FE274B1B68002BFFF632AF254A591E8A
:100B700091423FF62DAF03EB43021201013A232AC3
:100B80007FF626AF2B491D4807F0C2FD20E71B4822
:100B900007F008FE1A4B1B68002B8FDB194A591E01
:100BA00091428BD803EB43031A01013A232A85D9DA
:100BB00080E7124807F0F6FD114B1B68002BBFF6CB
:100BC00059AF05E703EB43021201013A232A7FF6EE
:100BD000FFAE1949094807F09BFDF9E6643400208F
:100BE0006C2B0020A4350020C40A002020380020EF
:100BF000080B00209438002096350020F0350020A6
:100C0000C4FFFF1F57555505A4020020C5D7FF1F7D
:100C1000D5E4FF1F89F3FF1F3836002098360020E7
:100C2000F1B4FF1F71EBFF1F6990FF1F2187FF1FAA
:100C3000D9AEFF1F69A1FF1F5DCEFF1F08B53F485A
:100C400005F000FE00286DD13D4805F0FBFD0028B1
:100C50005DD13C4805F0F6FD00284DD13A4805F03D
:100C6000F1FD00283DD1394805F0ECFD70BB384856
:100C700005F0E8FDF8B9374805F0E4FD80B93648DD
:100C800005F0E0FD00B908BD334805F00BFE002873
:100C9000F9D0324B07221A70BDE80840FFF754BE66
:100CA0002C4805F0FFFD0028E9D02C4B06221A70D5
:100CB000FFF74AFEE3E7264805F0F4FD0028DAD006
:100CC000264B05221A70FFF73FFED4E71F4805F0B8
:100CD000E9FD0028CBD0214B04221A70FFF734FE27
:100CE000C5E7194805F0DEFD0028BCD01B4B0322E8
:100CF0001A70FFF729FEB6E7124805F0D3FD002869
:100D0000ACD0164B02221A70FFF71EFEA6E70C4865
:100D100005F0C8FD00289CD0104B01221A70FFF787
:100D200013FE96E7054805F0BDFD00288CD00B4B5F
:100D300000221A70FFF708FE86E700BF98340020F3
:100D4000F8350020A8340020F40A0020B834002030
:100D5000342B002018360020C8370020963500209C
:100D60001B4B1B6810B5DBB91A4B1B491B781B4A80
:100D700051F83330107893F80032194CDBB29842B6
:100D800023701BD01748137002680120D2B2B3B988
:100D900051F8323083F80001BDE81040FFF7D4BDB0
:100DA000114805F04FFD48B10F4805F07BFD28B113
:100DB0000E4A1378B3FA83F35B09137010BD51F830
:100DC000323083F88000BDE81040FFF7BDBD00BFA2
:100DD0006434002074030020881B0100A435002027
:100DE00023380020B8370020583500204834002030
:100DF00038B53E4B1B68FBB93D4B3E4A3E4819781F
:100E000000783E4B127853F8311053F8322053F8E3
:100E1000303091F8005292F8002293F80032384CAA
:100E2000384839492570B2FA82F2B3FA83F352098D
:100E30005B0902700B7038BD344B1B7803B138BDB1
:100E4000334805F0FFFC00BB324805F0FBFC0028EE
:100E50003BD1314805F0F6FC38BB304805F0F2FCD8
:100E60000028ECD02D4805F01DFD0028E7D02C4AC5
:100E70002C491378B3FA83F35B09137042F21070B4
:100E8000BDE838400860FFF75FBD214805F00AFD66
:100E90000028D9D01A4A23491378B3FA83F35B099F
:100EA00042F2107013700860CEE71B4805F0FAFCA0
:100EB0000028D2D0144A1B491378B3FA83F35B0994
:100EC00042F2107013700860C7E7124805F0EAFCA0
:100ED0000028BED00B4A13491378B3FA83F35B0999
:100EE00042F2107013700860B3E700BF6434002052
:100EF000280100202C01002030010020881B010067
:100F0000040B0020180B0020B12B002020380020FB
:100F100098340020A8340020B8340020F835002090
:100F2000A4350020783800202DE9F04F10208DB036
:100F300005F0FAFD0121212006F050FAD64BDFF82A
:100F4000A0831878012106F049FA01210B2006F050
:100F500045FA02211F2006F041FA322006F044FA39
:100F60001F2006F02DFA002840F02C82DFF874A331
:100F7000DFF87493C94CCA4DCA4EC9F80000192253
:100F80000DF1200B4FF0040C012711464FF0060E17
:100F900009235846CAF800201422C4F800C000945F
:100FA000C5F800E03360C8F8007005F015FC9BE858
:100FB0000F00DFF838E3BC4C0694AEE807002EF8CB
:100FC000023B1B0C8EF800303946102006F006FA62
:100FD000B64AB74B0392B74AD3F804310492B64AE3
:100FE000029240F202321A603946032006F0F6F906
:100FF0003946202006F0F2F93946182006F0EEF9BD
:101000003946212006F0EAF93946212006F0D2F9C6
:1010100039461F2006F0E2F939461E2006F0DEF9B7
:10102000DFF8CCB239461D2006F0D8F939460F203A
:1010300006F0D4F99BF80000022106F0CFF99F4B8F
:101040009BF800000193394606F0B4F9DFF8A4B22A
:101050009B4B059300210E2006F0C0F901210F20C3
:1010600006F0BCF90021112006F0B8F90021122089
:1010700006F0B4F90021132006F0B0F90021142085
:1010800006F0ACF90021152006F0A8F90021162081
:1010900006F0A4F90021172006F0A0F90021222073
:1010A00006F09CF90021232006F098F90021242065
:1010B00006F094F90021252006F090F900211A206D
:1010C00006F08CF900211B2006F088F900211C2075
:1010D00006F084F9069C0221207806F07FF920783A
:1010E000012106F067F9039C0221207806F076F9C9
:1010F0002078012106F05EF902219AF8000006F03E
:101100006DF99AF80000012106F054F9049C0221BF
:10111000207806F063F92078012106F04BF9029C53
:101120000221207806F05AF92078012106F042F9D0
:1011300002219BF8000006F051F99BF80000012104
:1011400006F038F9019C0221207806F047F9207852
:10115000012106F02FF9059C0221207806F03EF9C6
:101160002078012106F026F900210C2006F036F93E
:10117000012199F8000006F031F9009C0121207846
:1011800006F02CF90121287806F028F901213078A1
:1011900006F024F9002005F0A1FC102006F078F8F4
:1011A0000D2005F0C1FC202005F0F2FC4549207817
:1011B00006F07EF84349287806F07AF841493078FD
:1011C00006F076F8012199F8000006F0F3F83220D5
:1011D00006F00AF90121032006F0ECF8322006F0AF
:1011E00003F90121202006F0F9F80121202006F062
:1011F000E1F8322006F0F8F80121182006F0DAF8BC
:10120000322006F0F1F80021212006F0D3F8322038
:1012100006F0EAF801211F2006F0CCF8322006F093
:10122000E3F801211E2006F0C5F8322006F0DCF8B4
:1012300001211D2006F0BEF8322006F0D5F801216C
:101240000F2006F0B7F8322006F0CEF8D8F80030BC
:10125000002B40F0FF801C4A1C481D491D4B1E4FAF
:10126000009C4FF4805EC2F800E04FF4802EC0F87E
:1012700000E02020106010220A6001214FF400627B
:10128000396016481A604FF480621A6000221960B3
:101290009146027030E000BF9C00002058340020CE
:1012A000942B002014380020280100202C0100205D
:1012B000881B010030010020E80200209C02002071
:1012C0007403002000409C4608F00F4048F00F4097
:1012D00004F00F4088F00F4008F10F404834002020
:1012E00064340020BC010020B8370020F40A00203C
:1012F00050020020E00000206FEA0927BFB2394603
:10130000207805F0C7FE3946287805F0C3FE394637
:10131000307805F0BFFE09F10109012006F064F8FC
:10132000B9F5807FE8D1AF4B1B68002B04DBAE4AD8
:10133000591E914240F249810A2006F055F80422D4
:10134000AA490C2005F018FE0A2006F04DF80020EE
:1013500005F040FDA64BD8F8004007288ABF0022C0
:1013600018701A70012C00F0B680A24CFFF7ECFA4E
:1013700004F580654FF400419F4807F095FA24F882
:10138000020FAC42F6D19D4B9D4A9E491960002345
:101390001360DFF8D4C2DFF8D4E29B4F9B4E9C4D24
:1013A0009C4C9D489D499E4ACCF80030CEF80030B8
:1013B0003B6033602B60236003600B6013600DB0F3
:1013C000BDE8F08F974F984B06930024974B3C60F5
:1013D00005970393944F964B0093964902910123EE
:1013E00019463B6007939448904B01900220186087
:1013F000924BDFF87CA2914A0492042018600322E9
:101400008C4BCAF8002005221A60DFF868B28A4BBC
:10141000DFF834928A4D8B4EC8F800400620072230
:101420001A60CBF80000824B0820C9F8000019228E
:1014300009201A6028600A220D20326005F0CEFFD4
:10144000079B0D20194605F0B5FF0021102005F07F
:10145000C5FFFFE57C4B0021187805F0ABFF32207B
:1014600005F0C2FF0021032005F0A4FF322005F0A3
:10147000BBFF0021202005F09DFF322005F0B4FFC6
:101480000021182005F096FF322005F0ADFF012164
:10149000212005F08FFF322005F0A6FF00211F203C
:1014A00005F088FF322005F09FFF00211E2005F087
:1014B00081FF322005F098FF00211D2005F07AFF02
:1014C000322005F091FF00210F2005F073FF0A2064
:1014D00005F08AFFBFE6204605F07CFC5B4BDFF899
:1014E0009891DFF898815A4E5A4FDFF894B101284D
:1014F00098BF187005464FF0020084BF1C70254647
:1015000005F068FC01288CBF012389F800004FF02A
:10151000030088BF89F8003005F05CFC01288CBF0F
:10152000012388F800004FF0040088BF88F80030DD
:1015300005F050FC0128824688BF4FF0000A0520C4
:1015400086F800A005F046FC0128044688BF002468
:1015500006203C7005F03EFC01288CBF00238BF870
:1015600000004FF0070088BF8BF8003005F032FC18
:10157000394B012886BF00221A701870BAF1000F8B
:1015800014BF00220222354B1444294603201C704C
:1015900005F010FF99F80010B1FA81F149091820FF
:1015A00005F008FF98F800101F2005F003FF9BF8D6
:1015B00000100F2005F0FEFE39781D2005F0FAFE20
:1015C00031781E2005F0F6FECFE603EB43031A0147
:1015D000013A232A7FF6B0AE2149224807F098F855
:1015E000AAE600BFC4FFFF1F575555057904000048
:1015F00096350020FE2F00200080FFFF9C35002044
:10160000283700200000584404370020F437002019
:10161000E0360020C03600209836002078360020C2
:101620003836002074030020280100202C010020FF
:1016300058340020E80200209C02002030010020E5
:10164000942B002014380020B8370020040B002011
:10165000F00A002022380020A43500200C3600209B
:10166000F1B4FF1FF035002008350020403700207E
:10167000BC010020E0000020180B0020B12B00204E
:10168000B22B0020234B24492448F0B5D3F810E0B6
:101690001F6A234C87FB012381FB0E2681FB07C2B7
:1016A000FD173A443B44C5EB6323C5EB622540F28A
:1016B0002222764402FB13734FEAEE77C7EB6626CD
:1016C0005B0202FB16E281FB03E71F44DB175202B9
:1016D000C3EB6723134F81FB02E111443B60D21738
:1016E0006F1C731CDFF850E054F827C054F82550E5
:1016F0000D4F50F823400D4BC7F800C0C2EB6122DC
:10170000CEF8002050F82610094A0A4814600560F7
:101710001960F0BDD4340020F1000FF0580400200F
:10172000E400002098350020742B0020E40A0020FB
:10173000E80A0020702B0020DC0A00202DE9F04F81
:101740009F4AA0491368A04D0C68A04885B0039338
:10175000039B126802922A78029D0D601B1B036096
:10176000072A00F22A81DFE812F0E9029C035B03FA
:10177000D1038101C40165020800FFF783FF944A89
:10178000944B1468DFF8C882934F944E00251D7067
:10179000204607F0B7FB924907F00CFC07F0F6FD76
:1017A000C8F80000C4F5FF60073007F0ABFB8D49B7
:1017B00007F000FC07F0EAFD8B4B3860186807F073
:1017C000BFFD8A4B1B6880127061002B00F0938470
:1017D000874B884C1B686068C3F57F630F331844E0
:1017E00007F094FB0021064607F082FD002840F038
:1017F0005E858149304607F099FD002840F0F88564
:101800004FF06451304607F0D5FB0146009007F0D9
:10181000D1FB009A0192114607F0CCFB4FF09241A8
:1018200007F0C8FB009007F08BFD9DE80600401113
:10183000724B6769724ED3F800E0DFF81892714D71
:10184000DFF814C27B1E06FB03F6E3689CF800C0B9
:10185000013B09FB03F385FB06A885FB03954FEAD3
:10186000E37B1D442368DFF8F491DFF8F4A1B04472
:10187000AEF6FF7EF617C6EB28369E44CBEB253539
:1018800006F5BB46DFF8DC81DFF8DCB18EF30D0E28
:101890004FEAEE03403605F5FA45CAF82430C9F898
:1018A0000060C8F80050CBF80020574BBCF1000F87
:1018B00000F0428502221A60544B1B78002B00F086
:1018C0003785534B02221A60524A534B92F800E07C
:1018D000CBF80010BF025149514A1B78906107FBB9
:1018E0000EF70F601BB1DAF8383006EB233606FB33
:1018F00006F3760333FB16F606F5004605FB05F303
:10190000C9F800602D0333FB15F5464AA368148817
:10191000454AC4F57F6413440F3403EB440405F5D2
:1019200000459442C8F8005040F6FF73C0F2C484EA
:10193000B4F5805F80F2CE843C4B84EAE4701C6096
:10194000A0EBE47007F0E2FA394907F0E7FB394B06
:1019500005461860014607F02DFB294607F02AFBD3
:10196000354B002C0546186040F34E85334907F08F
:1019700021FB4FF07E5107F015FA31490446284605
:1019800007F018FB4FF07E5107F00CFA2D49064680
:10199000284607F00FFB4FF07E5107F003FA2A4963
:1019A0000746284607F006FB4FF07E5107F0FAF98C
:1019B000264B1C605E609F60D86005B0BDE8F08F6C
:1019C000B8380020243800209635002068370020E1
:1019D000F82F0020B43700200037002028370020DF
:1019E000D578493FEC51783FE0370020643400203F
:1019F000F0370020D434002000F8FF459C0A002076
:101A000059A2FFFF210004808C2B0020F00A002047
:101A100060340020180B0020040B00207C350020CF
:101A2000F43700207835002001F0FFFF1436002045
:101A300000A00C46EC37002044350020421F4743ED
:101A4000D8691B44C65086440CE6A744080B002006
:101A5000883800201983FFFFA4350020803500203E
:101A600038360020682B00209C380020DFF8748274
:101A7000914D924E924F934C934BD8F80080012297
:101A80001A70404607F03EFA904907F093FA07F0C3
:101A90007DFC2860C8F5FF60073007F033FA8C49F9
:101AA0008C4D07F087FA07F071FC3A88A1688A4FDD
:101AB0008A4C8B4B3060C2F57F620F320A4441F68C
:101AC000FE718A42A8BF0A4622EAE272921202EB33
:101AD00042023A6003F1100004EB820252F8041B48
:101AE00055F8211043F8041B8342F7D105B0BDE837
:101AF000F08F7C4A744B16686F4D724CDFF8BC81D6
:101B000001221A70304607F0FDF97749074607F0C1
:101B100051FA07F03BFC2860C6F5FF60073007F07C
:101B2000F1F96B4907F046FA07F030FC644AA36804
:101B300015886E49C8F80000C5F57F620F32A3F61C
:101B4000FF7505EB42058D4240F6FF73C0F29882A7
:101B5000B5F5805F80F22B83654BDFF8DC811D607B
:101B6000284607F0D3F94FF0725107F023FA614B82
:101B700081461860014607F01DFA494607F01AFA37
:101B80005D4907F0CBFA002D0146C8F8000040F38C
:101B900039845A4B524D00221A60384607F00AFA2F
:101BA000574907F0BBFA5749C8F80000064607F046
:101BB00001FA554907F0B2FA4FF07E5107F0F2F8FA
:101BC00052492860304607F0F5F94F4907F0A6FA68
:101BD0004FF07E5107F0E6F84D496860304607F057
:101BE000E9F9494907F09AFA4FF07E5107F0DAF81F
:101BF0004849A860304607F0DDF9434907F08EFAFE
:101C00004FF07E5107F0CEF8E860216A62692369DF
:101C1000414D424C4248491252125B1201EBC10144
:101C200002EBC20203EBC30329602260036005B02C
:101C3000BDE8F08F2B4B204F1D68204E214C2846CD
:101C400007F060F9224907F0B5F907F09FFB38600B
:101C5000C5F5FF60073007F055F91D4907F0AAF9EF
:101C600007F094FB306010F04BF8236A164A2D49B8
:101C70002D4E08682D491B0500251570736107F06E
:101C80008FF82B4B0546186807F040F901462846A7
:101C900007F088F84FF08241054607F029FB00283D
:101CA00040F00D822349284607F040FB002800F051
:101CB000718241F6FE7003E2883800200037002070
:101CC00078350020D4340020B437002052B85E3F6D
:101CD000EC51783FCCD900002836002060BD0000D0
:101CE000080B0020F82F0020B81E453F01F0FFFF31
:101CF00014360020EC37002000409C45843500203D
:101D000000F07F45421F474300247449D8691B44B3
:101D1000C65086440CE6A744383400209C2B002093
:101D2000DC370020BC3700209836002000107E45AC
:101D30004C34002000F0FF4544350020B84BB94F2B
:101D40001C68B94E204607F0DDF8B849054607F093
:101D500031F907F01BFB3860C4F5FF60073007F06E
:101D6000D1F8B34907F026F907F010FBB14BB24A9E
:101D70001B889468B14AB2493060C3F57F630F3362
:101D8000144404EB430494424FF001030B7040F6FB
:101D9000FF73C0F2FA80B4F5805F80F27782A94BBE
:101DA000DFF8D8821C60204607F0B0F84FF072517F
:101DB00007F000F9A44B06461860014607F0FAF850
:101DC000314607F0F7F84FF0785107F0F3F8002CA0
:101DD0000746C8F80000014640F3DF804FF060512D
:101DE00007F0E8F84FF062510646384607F0E2F88F
:101DF0000746964B964C1D683146284607F0DAF8A0
:101E000007F09EFA03465A4263603946A2602846AC
:101E100007F0D0F807F094FA4342E0602360CCE585
:101E20007F4B804E1C68804D204607F06BF8804940
:101E300007F0C0F807F0AAFA3060C4F5FF60073079
:101E400007F060F87A4907F0B5F807F09FFA794B88
:101E5000794A1B88794992682860C3F57F630A44F0
:101E60000F3302EB43038B4240F6FF72C0F27C81DA
:101E7000B3F5805F80F29781724A002B136040F3C4
:101E8000F8827449744A4B62002314605360936073
:101E9000D3600FF035FF6A4B00221A7005B0BDE821
:101EA000F08F5F4B5F4E1C685F4D204607F02AF8AD
:101EB0005E4907F07FF807F069FA3060C4F5FF600B
:101EC000073007F01FF85A495D4C07F073F807F028
:101ED0005DFA28600FF014FF564B574A1B88926832
:101EE0005C495B48C3F57F630F33134441F6FE72D0
:101EF0009342A8BF134623EAE37300221B054B61FC
:101F00004A622270026005B0BDE8F08FDFF81081F0
:101F1000444DD8F80090474F474C434E484606F092
:101F2000F1FF434907F046F807F030FA2860C9F599
:101F3000FF60073006F0E6FF3D4907F03BF807F089
:101F400025FA3B88A2683D493060C3F57F63A2F65D
:101F5000FF720F3302EB43038B4240F6FF724DDBFF
:101F6000B3F5805F80F21B81364A002B136040F38B
:101F70007C823849384A4B620023C2F808901360CB
:101F80005360D3600FF0BCFE76E52F4B33492D48EC
:101F90001960DFF8E88032490260284607F00AF845
:101FA0003049C8F80000054607F004F82E49284CCF
:101FB00007F0B4F807F0C4F92C492060284606F071
:101FC000F9FF294907F0AAF807F0BAF9434263601C
:101FD0002749284606F0EEFF234907F09FF807F04F
:101FE000AFF92449A060284606F0E4FF1E4907F037
:101FF00095F807F0A5F94042E060DEE4114B41F6A8
:10200000FE72196013461C4812490260124A4B6264
:102010000023C2F80C90136053609360B2E700BFD6
:10202000F82F00208838002000370020B81E453FD8
:10203000EC51783F78350020D434002001F0FFFFC8
:10204000B437002014360020EC370020E0370020A1
:10205000C40A0020383600208435002000F07FC2FA
:1020600003D0FFC6421F47430050C347D8691B44F3
:10207000C65086440CE6A744D034002044350020E6
:10208000AF4AB048DFF82483AF4D1160AF4A056016
:10209000C8F80020AE4A127803FB06F3002A40F08D
:1020A0000081AC495B0A0B604A60AB4B0022C8F868
:1020B00000200122DA609A605A601A60A5E50820C3
:1020C000A64BA2681B88A649A64DA74C5210C3F583
:1020D0007F63A2F500620F3302EB630340F2FE72EE
:1020E0009342A8BF13468B42B8BF0B462B6020809B
:1020F00005B0BDE8F08F964B1B78002B60D19B4B51
:102100009B4C1B686068C3F57F630F33184406F06F
:10211000FDFE0021054607F0EBF8002840F0708135
:102120009449284607F002F9002840F067812846C4
:102130004FF0645106F03EFF62698F4B8F49DFF824
:10214000A492DFF8A4B2013A03FB02F281FB02136E
:102150001344D217C2EB233303F5BB434033C9F812
:102160000030CBF8000052E0754B40F2FE301960B1
:102170000F2141F6FE73824D764A2B60814F824ECD
:10218000824D546000237B6213609360D360317092
:1021900028607EE6284607F0F9F880B290E7684BA1
:1021A0001A601346E5E6664913460A6069E6644824
:1021B000644A7749116003607649DFF8F081E8E40A
:1021C0006B4CDFF824B26068DFF8189206F09EFED0
:1021D0004FF0645106F0EEFE644B61691A68664B7D
:1021E000CBF80000C2F57F620F320A4482F30D0281
:1021F000013A624903FB02F281FB02131344D21736
:10220000C2EB233303F5BB434033C9F80030624BC4
:102210001B78002B6CD16149E368614A0868574D0F
:102220002168DFF8C881DFF85CA1013B02FB03F302
:1022300085FB0325A0F6FF721D440A44DB17C3EBA0
:10224000253582F30D0205F5FA45D210C8F8005085
:10225000CAF82420534ADBF80060534F00233B6048
:1022600013603146304606F0A5FE314606F0A2FE68
:102270004FF0924106F09EFE009007F061F867690A
:10228000D9F8006000994011FFF71EBB2C4D2D4876
:10229000464A3F4C46492B6004601160454F464E0C
:1022A000A7E52C4A5B0A002182E80A00FDE600212E
:1022B00028460A46FFF7BCBA2248214D3B4B3F4C0B
:1022C0003F4904602A6019603E483F4F3F4E404CF2
:1022D000FFF76EBB1B481A4D344A384C384904602E
:1022E0002B6011603B483C4F3C4E3D4CFFF760BBC0
:1022F0002A4BE0681B682A49204D2268DFF8EC80F1
:10230000DFF880A0A3F6FF73034483F30D03013BC2
:1023100001FB03F385FB03151D44DB17C3EB2535D8
:1023200005F5FA45D210C8F80050CAF8242091E704
:102330001C4A1360FFF7C8BAC3F800C0FFF7BCBA65
:1023400014360020EC37002000F07FC2C78F51C246
:10235000A435002084350020C40A002078350020F0
:1023600002F8FFFFEC2B002098000020F03700203F
:10237000D434002000F8FF4559A2FFFF210004805B
:10238000D034002038360020D8370020C00A002082
:1023900000F07F42C78F5142F00A00209C0A0020C3
:1023A0001983FFFF603400208C2B0020443500206F
:1023B00003D0FF4603D0FF3F03D07F3FC3F5E83E85
:1023C00008EAC03D1FC92942673BD741D75684411F
:1023D0001FC935410D0CFF42BD6ECC42EB3A6E4237
:1023E0007A0D9E41803500209C380020682B00200B
:1023F0002449254A43F6FA70FFF71ABA22489BE6A9
:10240000002099E66B4245E6014606F0CBFC1F49E9
:1024100006F0D0FD4FF07E5106F0C4FC1C49044686
:10242000284606F0C7FD194906F0C4FD4FF07E515D
:1024300006F0B8FC17490646284606F0BBFD1349CE
:1024400006F0B8FD4FF07E5106F0ACFC4FF0824133
:102450000746284606F0AEFD0C4906F0ABFD4FF0EE
:102460007E5106F09FFCFFF7A3BA5B425B001A4661
:10247000C9E55B425B00990A0831C9B2C3F30900A0
:1024800079E600BF00E8FF4800F87F3F00005C42AB
:10249000000040400000A04070B5504B1B78012B5D
:1024A00017D04F4B1B68082B12D8DFE803F0586198
:1024B0007E851189931105004A4B4B4CDA685B68A5
:1024C0004A484B4952129B1054F8222002600B607C
:1024D00070BD4448474A016A1288474CC1F34F21F6
:1024E000B2F5807F218006D9444A14888C4202D0FC
:1024F000434C11802360434B434E42691B88434D3C
:10250000434C56F821102960C2F34F22B3F5807F67
:10251000228007D93F4B1988914203D038491A804D
:1025200001230B603C4903693C4D09883C483D4C04
:1025300055F822202260C3F34F23B1F5807F03803A
:1025400007D9394A1188994203D02D4913800122B5
:102550000A603649364A51F823301360A1E7214B0F
:10256000344A9B69BDE870405B101360FEF758B9B0
:10257000314D324C296832481A4A54F821601268A9
:10258000036844F8212001310F29A3EB060313440B
:10259000C4BF00222A600360D8BF2960002B294AEB
:1025A000B8BF0F331B11136070BD0E4B264C9868DB
:1025B00006F0ACFC206070BDBDE87040FEF7D0BBFB
:1025C000084B1B695B120F2B204B0CBF1F221722DD
:1025D0001A7070BDBDE87040FEF70ABCB437002029
:1025E000882B0020D434002084FFFF1F4C350020AE
:1025F0008C3800201A0B0020B80100201038002071
:10260000483500202C3600207C030020BC0A002026
:10261000980200200435002094350020100000208E
:102620009A020020E43700202834002034010020E2
:10263000782B002098380020C4010020B0350020FD
:10264000943400204C3400206835002055000020D0
:1026500070B5524B1B78012B13D0514B1B68082BC4
:102660000ED8DFE803F03D4F46050D83970D6C0053
:102670004C4B5B695B120F2B4B4B74D017221A70BB
:1026800070BD484C4949226A09884948C2F34F2223
:10269000B1F5807F028006D946490888904202D071
:1026A00045480A80036045496369454D09884548A6
:1026B000454C55F822202260C3F34F23B1F5807FAB
:1026C000038007D9414A1188994203D03A491380BF
:1026D00001220A603E493F4A51F823301360BCE7AB
:1026E000304CA3693C4A5B10BDE870401360FEF7B4
:1026F00097B8FEF735FB2B4B384C986806F006FC74
:10270000206070BD364D374C29683748254A54F84B
:1027100021601268036844F8212001310F29A3EBDE
:1027200006031344C4BF00222A600360D8BF296097
:10273000002B2E4AB8BF0F331B11136070BD194A0E
:102740002B4DD3682B4852682B4E2C4C2C495B12D6
:10275000921055F8235050F8230032600F2B25605B
:102760000860284B8AD11F221A7070BD0D4C264A72
:102770002369264DDB10A3F5007303FB03F003FB75
:1027800000F0136006F0C2FB4FF0425106F012FC5D
:102790002860A6E7BDE87040FEF72ABBB4370020EA
:1027A000882B0020D4340020540000201A0B002075
:1027B000B801002010380020483500202C360020B9
:1027C0002C03002098020020BC0A002004350020C1
:1027D0000C020020E43700209838002068350020E3
:1027E000C4010020B0350020943400204C34002077
:1027F000EC020020780100208C3800204C350020AD
:102800008C0A00207803002050340020303800204B
:1028100070B5524B1B78012B14D0514B1B68082B01
:102820000FD8DFE803F0555E7B0E0E05970E84008F
:102830004C4B1B695B120F2B4B4B00F0888017220F
:102840001A7070BD4748494A016A1288484CC1F362
:102850004F21B2F5807F218006D9464A14888C42E8
:1028600002D0454C11802360444B454E42691B8881
:10287000444D454C56F821102960C2F34F22B3F560
:10288000807F228007D9414B1988914203D03A4971
:102890001A8001230B603E4903693E4D09883E487A
:1028A0003E4C55F822202260C3F34F23B1F5807FC0
:1028B000038007D93A4A1188994203D02E491380E0
:1028C00001220A603749384A51F823301360A4E7DF
:1028D000244B364A9B69BDE870405B101360FDF7DE
:1028E0009FBF3348334D0168334C1E4A55F8216071
:1028F0001268236845F8212001310F29A3EB060354
:102900001344C4BF002202602360D8BF0160002BC3
:102910002A4AB8BF0F331B11136070BDFEF720FAAF
:10292000104B274C986806F0F1FA206070BD0D4AF4
:102930002448D3685268244C24495B12921050F802
:10294000230022600F2B0860214B7FF478AF1F22F9
:102950001A7070BDBDE87040FEF74ABAB437002067
:10296000882B0020D4340020550000201A0B0020B2
:10297000B801002010380020483500202C360020F7
:1029800054020020BC0A00209802002004350020D8
:1029900094350020080400209A020020E43700202B
:1029A00028340020C8FFFF1F782B00209838002013
:1029B000C4010020B0350020943400204C340020A5
:1029C00068350020A80200208C3800204C350020FB
:1029D0007803002070B5504B1B78012B13D04F4B60
:1029E0001B68082B0ED8DFE803F03D4663050D7E1B
:1029F000920D6C004A4B5B695B120F2B494B6FD0F9
:102A000017221A7070BD464947480A6A0088474C29
:102A1000C2F34F22B0F5807F228006D94448048853
:102A2000944202D0434C02802360434E4B69434D95
:102A300031884348434C55F822202260C3F34F238A
:102A4000B1F5807F038007D93F4A1188994203D0AE
:102A50003849138001220A603C493D4A51F823302D
:102A60001360BCE72E4B3B4A9B69BDE870405B108E
:102A70001360FDF7D5BE384D384C29683848284AD0
:102A800054F821601268036844F8212001310F29AD
:102A9000A3EB06031344C4BF00222A600360D8BF1F
:102AA0002960002B2F4AB8BF0F331B11136070BD74
:102AB000FEF756F91A4B2C4C986806F027FA20605E
:102AC00070BD174A2948D3685268294C29495B12BE
:102AD000921050F8230022600F2B0860264B8FD1F4
:102AE0001F221A7070BD0E4B244A1B69244CDB1048
:102AF000A3F5007303FB03F003FB00F0136006F083
:102B000005FA4FF0485106F055FA206070BDBDE857
:102B10007040FEF76DB900BFB4370020882B00204D
:102B2000D4340020540000201A0B0020B8010020EB
:102B300010380020483500202C360020C801002025
:102B400098020020BC0A002004350020C0030020A9
:102B5000E437002098380020C4010020B035002060
:102B6000943400204C3400206835002058000020A8
:102B70008C3800204C350020780300205034002091
:102B8000303800202DE9F04F994B9A4C186889B0E5
:102B90004FF07C5106F00EFA0146974806F000F916
:102BA0000546206806F0B2F90146284606F0FAF814
:102BB0000021054606F09CFB002840F060848E4909
:102BC000284606F0B3FB88B9284606F0B9FB8B4BC4
:102BD0001860FDF7C7FC8A4B1B78032B00F20581B8
:102BE000DFE813F0520382024201070040F2FF7057
:102BF000EDE7FFF72DFD834B83491C68204606F067
:102C000095FB002840F04A8720464FF0665106F0B9
:102C1000D1F97E4B044618607D4B1B78002B40F0A9
:102C200089877C4B7C4A18687C4B04924011069340
:102C300006F06CF97A497B4FDFF81C82DFF81CA2A2
:102C400006F06CFA4FF07E5106F0ACF8214606F023
:102C5000B1F9754C75490546754825604FF0814BB3
:102C6000C1F800B000884D6006F04CF97149096860
:102C700006F0A0F94FF0685106F09CF94FF07E5134
:102C800006F090F804466C486C49D0F800900C604F
:102C90002846494606F08EF906F052FB68498861DD
:102CA00006F034F9D8F8003001930646386806F08B
:102CB0002DF901990290304606F07CF9029906F050
:102CC00071F806F03DFBD8F804200392049AD06115
:102CD000786806F01BF903990490304606F06AF90B
:102CE000049906F05FF806F02BFBD8F808E0CAF864
:102CF0001800B868CDF814E006F008F90599824686
:102D0000304606F057F9514606F04CF806F018FB2D
:102D1000069B4C4A58614C4BF8680692079306F0A4
:102D2000F5F8D8F80C8007464146304606F042F9DF
:102D3000394606F037F806F003FB079B59469861C1
:102D4000484606F037F9214606F034F906F0F8FA5D
:102D50003E4BDFF80CB1986306F0D8F80646014602
:102D6000019806F027F9214606F024F9029906F0A9
:102D700019F806F0E5FA069A31465062039806F013
:102D800019F9214606F016F9049906F00BF806F039
:102D9000D7FA3146CBF81C00059806F00BF921460E
:102DA00006F008F9514605F0FDFF06F0C9FA284B78
:102DB000DFF8B0A0D8613146404606F0FBF8214666
:102DC00006F0F8F8394605F0EDFF06F0B9FA4FF0D5
:102DD0007A51CAF82000284606F0ECF8494606F079
:102DE000E9F806F0ADFA1B4B186109B0BDE8F08FA9
:102DF0005C3400208C38002000E0FF44AC38002018
:102E00000C360020BC37002000F07F450035002044
:102E1000B22B00204C340020C03600202837002080
:102E20000000E040C40A00202C3400204C040020A4
:102E30009435002030380020E03700201036002084
:102E400078360020983600200835002038360020DB
:102E5000043700201C0B0020080B0020F437002052
:102E6000E036002040370020FFF7B4FD2068804E98
:102E700006F04CF84FF06E5106F09CF87D4A7E4B00
:102E80001060054601461C6806F094F8294606F0D5
:102E900091F821460546204606F08CF8214606F0BA
:102EA00089F80146284605F07DFF744B04464FF033
:102EB0007C51186806F07EF80146204606F07AF844
:102EC00006F064FA6E4B30801C686E49204606F0AE
:102ED0002DFA002840F00A8520464FF0665106F092
:102EE00069F8694B1860694B1B780446002B00F0A9
:102EF0001E85674BDFF8DC811868DFF8DCA1654FC1
:102F000006F004F8644906F009F90646014606F0A1
:102F100051F8314606F04EF8604905F043FF4FF096
:102F200082410646204606F045F80146304606F046
:102F300041F85B4A5B4B5C494FF081458146C2F8E2
:102F400000900888C3F800905D6005F0DFFF574BE4
:102F5000196806F02FF84FF0685106F02BF84FF083
:102F60007E5105F01FFF524A524B16681860044606
:102F70002946304606F01EF8214606F01BF806F0FA
:102F8000DFF9D8F80010CAF81800304606F012F839
:102F9000294606F00FF8214606F00CF883463868FB
:102FA000DFF838A105F0B2FF0146584605F0FAFEF9
:102FB00006F0C6F9D8F80410CAF81C00304605F02F
:102FC000F9FF294605F0F6FF214605F0F3FF834699
:102FD0007868DFF80CA105F099FF0146584605F026
:102FE000E1FE06F0ADF9D8F80810CAF8180030462E
:102FF00005F0E0FF294605F0DDFF214605F0DAFF88
:103000008346B868DFF8DCA005F080FF014658462B
:1030100005F0C8FE06F094F9D8F80C10CAF81400B0
:10302000304605F0C7FF294605F0C4FF214605F0EC
:10303000C1FF0546F868204C05F068FF01462846A8
:1030400005F0B0FE06F07CF91C49A061484605F089
:10305000B1FF06F075F91A4D1A4C1B491B4A1C4B5F
:10306000A8636062C861D061186209B0BDE8F08FE2
:103070007A35002030360020FC2F0020F42F00206D
:10308000BC37002000F07F4500350020B22B002027
:103090004C340020C40A00200000FA436F12833A27
:1030A0002C3400204C0400209435002030380020BF
:1030B000E037002010360020083500200060EA4686
:1030C0003836002098360020E036002004370020F3
:1030D00040370020080B002078360020C036002042
:1030E000F437002028370020FFF7D6F9504B51491C
:1030F0001C68204606F01AF9002840F0FF8220469E
:103100004FF0665105F056FF4B4B18604B4B1B7848
:103110008146002B00F01383494B4A4F1868DFF8B3
:1031200058A1494EC01005F0F1FE484905F0F6FFE0
:103130004FF07E5105F036FE494605F03BFF444B0B
:10314000444A1D68444B10604FF081448046C3F8E8
:1031500004801C602146284605F02CFF06F0F0F89C
:103160003968CAF83800284605F024FF214605F0E2
:1031700021FF82463068DFF8049105F0C7FE014662
:10318000504605F00FFE06F0DBF87968C9F8240018
:10319000284605F00FFF214605F00CFF82467068B7
:1031A000DFF8DC9005F0B2FE0146504605F0FAFD6E
:1031B00006F0C6F8B968C9F81C00284605F0FAFE02
:1031C000214605F0F7FE8246B068DFF8B89005F0BA
:1031D0009DFE0146504605F0E5FD06F0B1F8F968A0
:1031E000C9F81C00284605F0E5FE214605F0E2FE80
:1031F0000546F068194C05F089FE0146284605F0A1
:10320000D1FD06F09DF816492062404605F0D2FE39
:1032100006F096F8134D144C1449154A154BA86145
:1032200060618861D061986109B0BDE8F08F00BF2E
:10323000BC37002000F07F4500350020B22B002075
:103240004C340020080B0020C40A0020CDCC8C3F59
:10325000E03700202C3400204C04002040370020B0
:1032600000C82F480835002028370020F4370020F8
:10327000C0360020783600203836002098360020EE
:10328000E036002004370020FFF7C2FA20687D4EA8
:1032900005F03CFE4FF06E5105F08CFE7A4A7B4BF8
:1032A0001060054601461C6805F084FE294605F0BD
:1032B00081FE21460546204605F07CFE214605F0AC
:1032C00079FE0146284605F06DFD714B04464FF02E
:1032D0007C51186805F06EFE0146204605F06AFE36
:1032E00006F054F86B4B30801C686B49204606F0A2
:1032F0001DF8002840F0FE8020464FF0665105F092
:1033000059FE664B1860664B1B780546002B00F093
:103310001281644BDFF8CC811868634B019305F090
:10332000F5FD6249DFF8C0B1614EDFF8C0A1DFF8FA
:10333000C09105F0F3FE5F4A07461060014605F0B4
:1033400039FE394605F036FE5B4905F02BFD4FF09E
:1033500082410746284605F02DFE0146384605F015
:1033600029FE564A56491568564A08604FF081446E
:103370000746176054602146284605F01BFE05F0FD
:10338000DFFFCBF81800D8F8000005F0BFFD31686A
:103390008346284605F00EFE214605F00BFE5946F1
:1033A00005F000FD05F0CCFFCAF81C00D8F80400B9
:1033B00005F0ACFD71688246284605F0FBFD21460C
:1033C00005F0F8FD514605F0EDFC05F0B9FFC9F830
:1033D0001800D8F8080005F099FDB1688146284624
:1033E00005F0E8FD214605F0E5FD494605F0DAFC6B
:1033F00005F0A6FF019B344A5861344BD8F80C0005
:103400000193029205F082FDF1688046284605F09E
:10341000D1FD214605F0CEFD414605F0C3FC05F087
:103420008FFF029A2A499061384605F0C3FD044691
:1034300005F086FF019B274D98632146584605F00D
:10344000B1FC05F07DFF244B21465862504605F043
:10345000A9FC05F075FF214B2146D861484605F0CF
:10346000A1FC05F06DFF2146E861404605F09AFC9D
:1034700005F066FF1A4B186209B0BDE8F08F002016
:10348000FFF7A5BB7A35002030360020FC2F002046
:10349000F42F0020BC37002000F07F4500350020CD
:1034A000B22B00204C340020283700200000FA43C3
:1034B000080B0020A83500206F12833AE037002067
:1034C0002C3400204C040020083500203836002021
:1034D0000060EA460437002098360020E0360020DD
:1034E00040370020C40A002078360020C036002073
:1034F000F437002020466D4905F052FC4FF06E5124
:1035000005F058FD6A4B04461860014605F052FD6F
:10351000214605F04FFD4FF0685105F04BFD4FF08F
:103520007E5105F03FFC634B1860634B1B780546EA
:10353000002B7FF4EEAE614BDFF8B0811868604B72
:1035400004930012013005F0E1FC4FF07C5105F0CE
:1035500031FD294605F02EFD5A4A5B4915685B4A44
:10356000086004464FF08146146056603146284694
:1035700005F020FD05F0E4FEDFF878B1D8F8001082
:10358000CBF81800284605F015FD514FDFF868A16B
:10359000DFF85C918346386805F0B8FC314601904D
:1035A000584605F007FD019905F0FCFB05F0C8FE43
:1035B000D8F80410CAF81C00284605F0FBFC02905D
:1035C000786805F0A3FC31468246029805F0F2FCCB
:1035D0005146CDF80CA005F0E5FB05F0B1FED8F89A
:1035E0000810C9F81800284605F0E4FC8246B868BF
:1035F00005F08CFC31468146504605F0DBFC49461F
:1036000005F0D0FB05F09CFE049BD8F80C10586127
:10361000284605F0CFFC2F4B2F4A04938046F868CC
:10362000059205F073FC31460746404605F0C2FCA2
:10363000394605F0B7FB05F083FE059A29469061EF
:10364000204605F0B7FC05F07BFE049B234D9863F4
:103650005946204605F0AEFC019905F0A3FB05F0A4
:103660006FFE1F4B02995862204605F0A3FC039998
:1036700005F098FB05F064FE5146E861204605F030
:1036800099FC494605F08EFB05F05AFE154B164D88
:10369000D8614146204605F08DFC394605F082FB95
:1036A00005F04EFE286209B0BDE8F08F00F07F45BE
:1036B0003438002000350020B22B00204C3400208C
:1036C00028370020E03700202C3400204C04002054
:1036D000C40A00203836002008350020E0360020DB
:1036E000983600200437002040370020080B0020C7
:1036F000F437002078360020C03600202046664986
:1037000005F04EFB4FF06E5105F054FC634B044640
:103710001860014605F04EFC214605F04BFC4FF0C9
:10372000685105F047FC4FF07E5105F03BFB5C4BC8
:1037300018605C4B1B788146002B7FF4EDAC5A4B34
:103740005A4E18685A4DDFF89C815A4F401105F0C7
:10375000DDFB594905F0E2FC4FF07E5105F022FBFC
:10376000494605F027FC554A55491368554A0860F3
:103770004FF0814B1946C2F800B05060049305F039
:1037800019FC05F0DDFD504A906105F0BFFB336880
:1037900004462868994605F0B9FB4946824620460A
:1037A000CDF8089005F006FC514605F0FBFA05F04F
:1037B000C7FD7368C8F81C006868019305F0A6FB94
:1037C00001998146204605F0F5FB494605F0EAFAE5
:1037D00005F0B6FDB861A868D6F8088005F096FB3C
:1037E00041460746204605F0E5FB394605F0DAFA82
:1037F00005F0A6FD354B364A5861E8680392F66835
:1038000005F084FB31460546204605F0D3FB2946EA
:1038100005F0C8FA05F094FD049B039A594690619F
:10382000184605F0C7FB05F08BFD2A4ADFF8B8B053
:10383000906305F06BFB04460146029805F0BAFB65
:10384000514605F0AFFA05F07BFD234B2146586247
:10385000019805F0AFFB494605F0A4FA05F070FDAC
:103860002146CBF81C00404605F0A4FB394605F084
:1038700099FA05F065FD194B194FD861214630467C
:1038800005F098FB294605F08DFA05F059FD3862E0
:1038900009B0BDE8F08F00BF00F07F45343800204C
:1038A00000350020B22B00204C340020080B0020F3
:1038B000C40A0020F43700200000E040E037002078
:1038C0002C3400204C0400207836002028370020BB
:1038D00008350020383600209836002004370020B4
:1038E00040370020C0360020E036002020467A49CC
:1038F00005F056FA4FF06E5105F05CFB774B04462D
:103900001860014605F056FB214605F053FB4FF0C9
:103910006C5105F04FFB4FF07E5105F043FA704BB0
:103920001860704B1B780446002B7FF4E2AA6E4BA4
:103930006E4A186801924012013005F0E7FA2146FC
:1039400005F038FB6A4B6B496B4FDFF8DCB16B4E0F
:10395000DFF8D8A1DFF8D89180466948C1F8008027
:103960004FF08145C3F800805D60008805F0CAFA19
:10397000644B196805F01EFB4FF0685105F01AFB07
:103980004FF07E5105F00EFA5F4B60491B680860EE
:10399000044629461846029305F00CFB05460146ED
:1039A000204605F007FB05F0CBFCCBF81800386883
:1039B00005F0ACFA31688346284605F0FBFA21464B
:1039C00005F0F8FA594605F0EDF905F0B9FCCAF82A
:1039D0001C00786805F09AFA71688246284605F05E
:1039E000E9FA214605F0E6FA514605F0DBF905F063
:1039F000A7FCC9F81800B86805F088FAB1688146D4
:103A0000284605F0D7FA214605F0D4FA494605F0D4
:103A1000C9F905F095FC019A50613D4AF868019298
:103A200005F074FAF1680746284605F0C3FA214606
:103A300005F0C0FA394605F0B5F905F081FC019AA8
:103A4000029B90611946404605F0B4FA044605F021
:103A500077FC304B304D98632146584605F0A2F96B
:103A600005F06EFC2D4B21465862504605F09AF940
:103A700005F066FC2A4B2146D861484605F092F9CC
:103A800005F05EFC2146E861384605F08BF905F04B
:103A900057FC244B186209B0BDE8F08F20460E4950
:103AA00005F07EF94FF06E5105F084FA0B4B044699
:103AB0001860014605F07EFA214605F07BFA4FF0CA
:103AC000685105F077FA4FF07E5105F06BF9044B21
:103AD00004461860FFF7A0B800F07F453438002096
:103AE00000350020B22B00204C3400202837002065
:103AF0004C0400202C340020C40A0020080B0020B5
:103B00009435002030380020E037002010360020A7
:103B10000835002038360020043700209836002071
:103B2000E03600204037002078360020C0360020E4
:103B3000F4370020814B824F1868824B0193C010EC
:103B400005F0E4F98049DFF838B2DFF838A2DFF891
:103B5000389205F0E3FA4FF07E5105F023F9214643
:103B600005F028FA794A7A4905467A480D604FF0FF
:103B7000814600885560166005F0C4F9764A1168E0
:103B800005F018FA4FF0685105F014FA4FF07E5125
:103B900005F008F9714A724910600446284605F09C
:103BA00009FA214605F006FA05F0CAFB019BD7F891
:103BB000008098616A49404605F0FCF9294605F005
:103BC000F9F9214605F0F6F905F0BAFB7B68CBF868
:103BD0001C0063490293184605F0ECF9294605F0EC
:103BE000E9F9214605F0E6F905F0AAFBD7F808B097
:103BF000CAF818005A49584605F0DCF9294605F07C
:103C0000D9F9214605F0D6F905F09AFBD7F80CA0B2
:103C1000C9F814005249DFF87491504605F0CAF90A
:103C2000294605F0C7F9214605F0C4F905F088FBDF
:103C30004C494D4B0F6898613146384605F0BAF94A
:103C4000214605F0B7F905F07BFB3946C9F8380085
:103C5000404605F0AFF9454A0192314605F0AAF910
:103C6000214605F0A7F9DFF828818146D8F8000041
:103C700005F04CF90146484605F094F805F060FB64
:103C8000019A029B50623946184605F093F9314675
:103C900005F090F9214605F08DF9354B354A029330
:103CA0008146D8F80400019205F030F901464846F3
:103CB00005F078F805F044FB019A3946D061584682
:103CC00005F078F9314605F075F9214605F072F9ED
:103CD000294A01928146D8F80800DFF8B8B005F00B
:103CE00015F90146484605F05DF805F029FB029BF1
:103CF0003946D861504605F05DF9314605F05AF96C
:103D0000214605F057F90446D8F80C0005F0FEF8F6
:103D10000146204605F046F805F012FB4FF07851B9
:103D2000CBF82000284605F045F9144905F042F982
:103D300005F006FB019A1061FFF757B84C340020DC
:103D4000080B002078360020CDCC8C3F4C0400209E
:103D50002C3400209435002030380020103600200C
:103D600000C82F48E0370020083500209836002092
:103D700004370020E03600201C0B00200060EA46DB
:103D8000C0360020F43700202837002038360020C5
:103D9000C40A0020403700202DE9F04FA74EA84963
:103DA000F368A84AA84DDFF8348328685B1283B013
:103DB00051F82330136005F0A9F84FF06E5105F06B
:103DC000F9F8C8F80000FCF7CDFBA04B1B78032BDB
:103DD00000F2F284DFE813F0CC01E2018601040076
:103DE000FEF736FC9A4C9B4B9B4F1888DFF8F092FD
:103DF0004FF00008C4F8048005F084F8974B196868
:103E000005F0D8F84FF0685105F0D4F84FF07E5126
:103E100004F0C8FF924B3860A3F80080914B4FF03C
:103E20007C51186805F0C6F801468F4804F0B8FFC9
:103E30008046286805F06AF80146404604F0B2FF63
:103E40000021054605F054FA002840F06F828749AA
:103E5000284605F06BFA002840F063822946824824
:103E600004F09EFF05F06CFA824605F04FF880469C
:103E70007F4A804B15688049C3F800A0284605F0AA
:103E800055FA002800F0458228467B497B4D04F016
:103E900087FF4FF06E5105F08DF8794B8246186020
:103EA000014605F087F8514605F084F84FF06C5153
:103EB00005F080F84FF07E5104F074FF2860714BDC
:103EC0001B78002B00F078816F4B1B78002B00F0E3
:103ED0005B836E4B1B78062B00F056846C4B186886
:103EE000401005F013F84FF07E5104F05BFF296895
:103EF00005F060F8674B06461860674B67495E60DF
:103F00004FF081451D609D60404605F007F964490A
:103F100005F050F805F014FAD9F80090D7F80080B1
:103F2000A06182462946484605F044F8414605F01E
:103F300041F805F005FA5B49A0630546304605F0F7
:103F400039F805F0FDF9584B584C07469F6150462B
:103F500004F0DCFF524904F025FF05F0F1F94600BA
:103F6000B542534B6168C8BF6D108246D4BFC3F8D9
:103F700024A05D62484605F01DF84FF0814105F030
:103F800019F8414605F016F84A4D8346686804F072
:103F9000BDFF0146584604F005FF05F0D1F9464B38
:103FA000464ADF618642464BD061B6BF4010C3F837
:103FB00018A09861A168484604F0FCFF4FF08141C9
:103FC00004F0F8FF414604F0F5FF8346A86804F0CA
:103FD0009DFF0146584604F0E5FE05F0B1F9394B66
:103FE000394A5F618642394BD061B6BF4010C3F891
:103FF00020A01862E168484604F0DCFF4FF08141E0
:1040000004F0D8FF414604F0D5FF0446E86804F008
:104010007DFF0146204604F0C3FE05F091F92C4BCC
:104020002C4ADF6186422C4B9061B6BF4010C3F82A
:1040300020A0186203B0BDE8F08F00BFD434002088
:10404000A0000020880A00208C3800200C360020B8
:1040500038360020943500201036002030380020FB
:104060007A3500205C34002000E0FF440080FC44EE
:10407000BC370020AC38002000F07F450035002020
:104080003438002022380020B22B00209635002042
:104090004C3400202C3400204C0400200000C04090
:1040A0000060EA470060EA4678360020080B0020EE
:1040B00098360020C40A0020E0360020C0360020D8
:1040C000F437002028370020043700204037002034
:1040D0002435002008350020003400203036002030
:1040E000E0370020DFF8B892934C944FDFF860B2CD
:1040F000FEF770FCD9F8000005F048F9904B6060BD
:10410000188804F0FFFE8F4B196804F053FF4FF03E
:10411000685104F04FFF4FF07E5104F043FED8F891
:1041200000A0894B386051465046D3F8008004F017
:1041300041FF514604F03EFF41468246404604F0AE
:1041400039FF414604F036FF0146504604F02AFE8E
:104150007E4B80464FF07C51186804F02BFF0146DF
:10416000404604F027FF05F011F9ABF8000055E6D2
:10417000DFF82C92704C714FDFF8D4B1FEF748FB9A
:10418000D9F8000005F002F9D8F800A060604FF0FF
:104190007E533B60514650466B4BC6E7674F664CBB
:1041A000DFF8FC91FEF778F94FF07E53684A3B60E8
:1041B00000236360138031E6664B1B78002B00F010
:1041C000F980654B1B78062B00F0CF82634B186893
:1041D000401004F09BFE4FF07E5104F0E3FD29688F
:1041E00004F0E8FE5E4A034610605E4AD9F800908B
:1041F00053604FF08145156095602946484600930D
:1042000004F0D8FE5849DFF89CA18346404604F0EC
:1042100085FF594604F0CEFE05F092F83E68A06195
:1042200031468046584604F0C5FE05F089F8009BEB
:104230004E49A063184604F0BDFE05F081F84C4BD2
:104240004C4C07469F61404604F060FE594604F01E
:10425000A9FD05F075F8484BDAF80410586280465D
:10426000484604F0A7FE294604F0A4FE314604F0B7
:10427000A1FE8346606804F049FE0146584604F0FA
:1042800091FD05F05DF83D4B3D4AD8613D4BD7614E
:10429000C3F81880DAF80810484604F08BFE294667
:1042A00004F088FE314604F085FE374B00938346C8
:1042B000A06804F02BFE0146584604F073FD05F09B
:1042C0003FF8009B314AD861314B57614846C3F8EB
:1042D0002080DAF80C10DFF8D09004F06BFE29464D
:1042E00004F068FE314604F065FE0546E06804F01F
:1042F0000DFE0146284604F055FD05F021F8254A3B
:10430000254BC9F81800D761C3F8208003B0BDE879
:10431000F08F28464FF0665104F04CFE1F4D286088
:10432000CDE5DFF888804FF01B0AA1E5DFF880803B
:1043300040F2FF7A9CE500BF38360020103600209E
:104340009435002030380020FC2F0020F42F00206E
:104350007A350020B22B0020963500204C34002006
:104360002C3400204C04002000007F430060EA460B
:1043700078360020C40A002098360020C03600207D
:10438000E0360020F43700200437002028370020D2
:104390004037002024350020003400200035002064
:1043A000E0370020080B0020083500200000D8412D
:1043B00000E0FF44614B1B78062B00F0B881604B96
:1043C0001868401104F0A2FD5E4904F0A7FE4FF00A
:1043D0007E5104F0E7FC296804F0ECFD5A4B83465B
:1043E00018605A4AD9F80060C2F804B04FF081450D
:1043F00015609560564B00932946304604F0DAFD6F
:104400005449DFF878918246404604F087FE5146D1
:1044100004F0D0FD04F094FF3F68A0613946804667
:10442000504604F0C7FD04F08BFF5946A0633046A8
:1044300004F0C0FD044604F083FF009B98614046F1
:1044400004F064FD514604F0ADFC04F079FF424BEA
:10445000DFF824A18046C3F82480D9F8040004F0D2
:1044600055FD3E4BDAF8041000938346304604F0C5
:10447000A1FD294604F09EFD394604F09BFD5946F6
:1044800004F090FC04F05CFF009B5946D861204684
:1044900004F088FC04F054FF314A324BD061C3F879
:1044A0001880D9F8080004F031FD2F4BDAF8081015
:1044B00000938346304604F07DFD294604F07AFDE2
:1044C000394604F077FD594604F06CFC04F038FFDF
:1044D000009B5946D861204604F064FC04F030FF8C
:1044E000224A234B5061C3F82080D9F80C00DFF832
:1044F00090B004F00BFDDAF80C10DFF888A08146CC
:10450000304604F057FD294604F054FD394604F0C6
:1045100051FD494604F046FC04F012FF4946CBF831
:104520001800204604F03EFC04F00AFF114BCAF8C4
:104530001C00C3F8208003B0BDE8F08F9635002042
:104540004C340020000020412C3400204C0400207A
:104550007836002000007F4398360020C0360020C7
:10456000E0360020F43700200437002028370020F0
:104570004037002000340020080B0020C40A00202F
:1045800008350020243500208E4B1B78062B00F0C8
:10459000DD808D4B1868401104F0B8FC8B4904F0A5
:1045A000BDFD4FF07E5104F0FDFB296804F002FDD3
:1045B000874B82461860874B8749C3F804A04FF0A9
:1045C00081451D609D60404604F0A8FD834B8449F1
:1045D000009304F0EFFC04F0B3FED9F80060D7F8C4
:1045E0000080A06183462946304604F0E3FC414642
:1045F00004F0E0FC04F0A4FE05465146A5633046F5
:1046000004F0D8FC824604F09BFE009B754C986138
:10461000584604F07BFC724904F0C4FB04F090FEA1
:104620004700BD42704B714A0192C4BF6D105D627C
:104630006F4D8146D8BFC3F82490686804F066FCCB
:1046400061688346304604F0B5FC4FF0814104F0C8
:10465000B1FC414604F0AEFC594604F0A3FB04F063
:104660006FFE034663480093C3615946504604F009
:1046700099FB04F065FE009B019A9F42D061C0F255
:1046800097805D4BC3F818905C4AA868019204F0CB
:104690003DFCA1688346304604F08CFC4FF081411C
:1046A00004F088FC414604F085FC594604F07AFB8E
:1046B00004F046FE034652480093C36159465046F3
:1046C00004F070FB04F03CFE009B019A9F42506195
:1046D0006ADB4C4BC3F82090E868DFF840B104F087
:1046E00015FCE1680546304604F064FC4FF081415A
:1046F00004F060FC414604F05DFC294604F052FBE6
:1047000004F01EFE404B04469C612946504604F0CE
:1047100049FB04F015FEA7423C4BCBF81C00B6BF8A
:104720006410C3F820901C6203B0BDE8F08FF068FD
:10473000001104F0EBFB364904F0F0FC4FF07E5121
:1047400004F030FB224B834618604AE6F068001103
:1047500004F0DCFB2E4904F0E1FC4FF07E5104F044
:1047600021FB1B4B8246186025E7F06804F0CEFB66
:104770004FF07F5104F01EFC4FF07E5104F012FB0D
:10478000134A0346106030E5F06804F0BFFB4FF0B9
:104790007F5104F00FFC4FF07E5104F003FB0C4BF3
:1047A00006461860FFF7A9BB164A5B10136293E731
:1047B000114A5B10936167E7164CDFF86490164F5F
:1047C000FFF72CBB963500204C3400200000A040A1
:1047D0002C3400204C0400200000C040783600201B
:1047E0000060EA47080B002098360020E0360020E1
:1047F000C40A0020C0360020F437002028370020EB
:104800000437002040370020083500200034002005
:10481000000060413836002010360020243500208A
:10482000E03700202DE9F843A54BA64D18684FF05E
:104830007C5104F0BFFB0146A34804F0B1FA0446E2
:10484000286804F063FB0146204604F0ABFA00211F
:10485000044604F04DFD002840F0C4819A492046EA
:1048600004F064FD002834D1204604F069FD974B24
:104870001860FBF777FE964B96491C68204604F0BB
:1048800055FD002800F0A68120469249924E04F082
:1048900087FA4FF06E5104F08DFB904B0446186080
:1048A000014604F087FB214604F084FB4FF0685179
:1048B00004F080FB4FF07E5104F074FA3060884BB6
:1048C0001B78032B55D8DFE813F03301CC005600DA
:1048D000070040F2FF70CAE7FDF7BAFE814B188867
:1048E00004F010FB804B196804F064FB4FF0685132
:1048F00004F060FB4FF07E5104F054FA7B4B7C4A8D
:104900001B7810600446002B40F0D581794BDFF80E
:104910000C82D868401104F0F9FA4FF07E5104F08F
:1049200041FA754B754A1D68754B10604FF0814711
:1049300058601F602946064604F03CFB04F000FD69
:104940003946C8F81800284604F034FB214604F024
:1049500031FB04F0F5FC6B4B4FF07C519863304613
:1049600004F028FB294604F025FB04F0E9FC664B23
:104970001861BDE8F883FEF72DF82868634E04F04F
:10498000C5FA4FF06E5104F015FB614A614B10609F
:10499000054601461C6804F00DFB294604F00AFB9D
:1049A00021460546204604F005FB214604F002FBA3
:1049B0000146284604F0F6F9574B04464FF07C5167
:1049C000186804F0F7FA0146204604F0F3FA04F000
:1049D000DDFC444B3080188804F094FA424B19688F
:1049E00004F0E8FA4FF0685104F0E4FA4FF07E5119
:1049F00004F0D8F93D4B3E4A1B7810600446002B6A
:104A000000F036813B4BDFF8FC80D868434F04F060
:104A10007DFA434904F082FB0646014604F0CAFAD7
:104A2000314604F0C7FA3F4904F0BCF9344B33492E
:104A300018604FF081455D6008603B4904F0BAFAA8
:104A400004F07EFC2C4BC8F838002946186804F0A6
:104A5000B1FA214604F0AEFA04F072FCB861BDE888
:104A6000F883FDF719FD214B1B78002B00F0E8803F
:104A7000204B244ED868294DC01004F047FA2B492A
:104A800004F04CFB4FF07E5104F08CF91C4B1B4999
:104A9000044619485C604FF081421A600C6000685F
:104AA000114604F087FA04F04BFC1F49B06320461E
:104AB00004F080FA04F044FCA861BDE8F88300BF6C
:104AC0005C3400208C38002000E0FF44AC3800202B
:104AD000BC37002000F07F4500350020343800202E
:104AE0000C3600209435002030380020B22B0020F6
:104AF00010360020D4340020E03700202C34002071
:104B00004C040020383600201C0B00207A35002091
:104B100030360020FC2F0020F42F002078360020B3
:104B20000000FA436F12833A0060EA46CDCC8C3F16
:104B3000FDF76EFE28687C4E04F0E8F94FF06E51E8
:104B400004F038FA794A7A4B1060054601461C6831
:104B500004F030FA294604F02DFA21460546204695
:104B600004F028FA214604F025FA0146284604F00C
:104B700019F9704B04464FF07C51186804F01AFA8A
:104B80000146204604F016FA04F000FC6A4B30801F
:104B90001B784BBB694B6A4FD8686A4E4012013094
:104BA00004F0B4F9684B69491C68694B08604FF020
:104BB0008145214618605D6004F0FCF904F0C0FBFB
:104BC0002946B863204604F0F5F904F0B9FBB0615A
:104BD000BDE8F88320464FF0665104F0EBF95D4CD8
:104BE00020606CE6002042E6544B554FD868554E85
:104BF00004F08CF9584904F091FA584B04461860B7
:104C0000014604F0D7F9214604F0D4F954494F4C39
:104C100004F0C8F84E4B534918604FF081455D6071
:104C2000206004F0C7F904F08BFB474BB8632946BA
:104C3000186804F0BFF904F083FBB061BDE8F883A5
:104C40003E4B3F4FD8683F4E401104F05FF94FF0A4
:104C50007E5104F0A7F83C4B3C491D683C4B086072
:104C600004464FF08142284611465C601A60A3E773
:104C7000324B334FD8684012013004F047F9324BC1
:104C800032491D68324B08604FF0814618605E6003
:104C9000294604F08FF904F053FB3146B8632846E7
:104CA00004F088F9214604F085F904F049FB254B0E
:104CB0009861BDE8F883214BDFF88890D868DFF869
:104CC0008080294FC01004F021F9284904F026FA09
:104CD0004FF07E5104F066F81C4A1D4B10604FF0F7
:104CE000814658601E601F49054604F063F904F0D0
:104CF00027FB154BC9F818003146186804F05AF91B
:104D0000214604F057F904F01BFB4FF07851C8F826
:104D10003800284604F04EF9124904F04BF904F02B
:104D20000FFB3861BDE8F8837A350020303600206B
:104D3000FC2F0020F42F0020B22B0020D4340020C0
:104D40003836002078360020E03700202C34002050
:104D50004C040020003500200000FA43A835002054
:104D60006F12833A0060EA461C0B0020CDCC8C3FCA
:104D7000324B3349DB68334A2DE9F04F5B128BB07D
:104D800051F823301360FBF7EDFB2F4B4FF07C51B4
:104D9000186804F00FF901462C4804F001F82C4B78
:104DA0000446186804F0B2F80146204603F0FAFF02
:104DB0000021044604F09CFA002840F0E4852349D1
:104DC000204604F0B3FA002835D1204604F0B8FAA2
:104DD000204A214B146818602049204604F0A6FAA6
:104DE000002800F0C5851E4B1C49099320461D462E
:104DF00003F0D6FF4FF06E5104F0DCF8194B044677
:104E00001860014604F0D6F8214604F0D3F84FF0BC
:104E1000685104F0CFF84FF07E5103F0C3FF2860D3
:104E2000114B1B78032B00F2B185DFE813F0690406
:104E30002B03D1011F0040F2FF70C9E7D4340020DA
:104E4000A0000020880A00205C34002000E0FF441D
:104E50008C380020BC370020AC38002000F07F45A3
:104E600000350020343800200C360020FDF7F0FB20
:104E7000B74AB84BB84C1068B84EB94F1A68248876
:104E800007960197B74EB84FB849B94B02960397AA
:104E9000461CB84F0894254609880497B64C33F849
:104EA0001660248833F810A033F812E0571C294408
:104EB00033F8177000F1020C01FB06F633F81C9072
:104EC00004FB076600F1030C471D01FB0AF533F8EC
:104ED0001C8004FB0E5500F1040C33F817E033F886
:104EE0001CC0871D00F1070A083033F8177033F82B
:104EF000100033F81AA001FB00FB01FB0AFA01FBCA
:104F000009F901FB08F801FB0CFC01FB0EFE01FB9B
:104F100007F79249F612CE61901CD61C33F81000A8
:104F200033F816608E49ED12CD6004FB068804FB51
:104F30000090151D8B4E33F81550C012B061501DF6
:104F400004FB05CC33F81050901D04FB05EE33F83C
:104F50001060D01D083233F8105033F81200874B20
:104F6000059304FB00B18048854BDFF85CB24FEA43
:104F7000E82242617F4A04FB06774FEAEC2604FBF5
:104F800005A556617F4C7D4A06944FEAEE24546194
:104F90007C4CDFF838A2FF1227611F787A4BED12A4
:104FA000C912CBF81850CAF814101868002F40F036
:104FB0007585001103F0AAFF744904F0AFF84FF0B3
:104FC0007E5103F0EFFE099B196803F0F3FF704A6E
:104FD000704B106018600646089803F093FF6E4B04
:104FE000196803F0E7FF4FF0685103F0E3FF4FF05B
:104FF0007E5103F0D7FE694A694B106000220446D7
:105000001A80002F40F0E681664B674F1D683146DD
:10501000284603F0CFFF04F093F94FF07A51B863BC
:10502000304603F0C7FF294603F0C4FF04F088F9B7
:105030005E4F38614FF08141284603F0BBFF2146A7
:1050400003F0B8FF04F07CF9594E019BD6F80090AC
:1050500098615849284603F0ADFF494603F0AAFF7E
:10506000214603F0A7FF04F06BF9079BD6F80480F4
:1050700058624FF08241284603F09CFF414603F0FE
:1050800099FF214603F096FF04F05AF9029BB76896
:10509000D8614949284603F08DFF394603F08AFF5D
:1050A000214603F087FF04F04BF9039BF668D861B3
:1050B0004FF08341284603F07DFF314603F07AFF2D
:1050C000214603F077FF04F03BF9049B3B499861CC
:1050D000284603F06FFF09F1004103F06BFF214602
:1050E00003F068FF04F02CF9059B3549D861284688
:1050F00003F060FF08F1004103F05CFF214603F07C
:1051000059FF04F01DF9069B2E495861284603F00B
:1051100051FF07F1004103F04DFF214603F04AFF24
:1051200004F00EF94FF08441CBF82000284603F03C
:1051300041FF06F1004103F03DFF214603F03AFF35
:1051400004F0FEF8CAF818000BB0BDE8F08F00BFFD
:105150009C2B002038340020943500209836002005
:1051600078360020C0360020E03600202C360020A3
:105170002C0E0100F43700201A0B00200437002009
:10518000B22B0020283700204C3400203333A340BA
:105190002C3400204C040020303800201036002031
:1051A0007A350020E0370020383600201C0B002024
:1051B000080B00200000C040000040410000A0415A
:1051C0000000C0410000E0414037002008350020C9
:1051D000FDF700FC8A4A8B4B8B4C10688B4E8C4F32
:1051E0001A682488079601978A4E8B4F8B498C4BFF
:1051F00002960397461C8B4F098804972546571C37
:10520000894C33F81660248833F8177033F810A0EF
:1052100033F812E00895294400F1020C01FB06F670
:1052200033F81C9004FB076600F1030C471D01FBDB
:105230000AF533F81C8004FB0E5500F1040C33F81A
:1052400017E033F81CC0871D00F1070A083033F857
:10525000177033F8100033F81AA001FB00FB01FBB4
:105260000AFA01FB09F901FB08F801FB0CFC01FB40
:105270000EFE01FB07F76549F612CE61901CD61CA5
:1052800033F8100033F816606149ED12CD6004FB6D
:10529000068804FB0090151D5E4E33F81550C012B1
:1052A000B061501D04FB05CC33F81050901D04FB79
:1052B00005EE33F81060D01D083233F8105033F883
:1052C00012005A4A059204FB00B104FB067704FB66
:1052D00005A5514CDFF8A4B1DFF8A4A14FEAE823FB
:1052E00010466361524A4F4B06924FEAEC225A61D4
:1052F0004F4A504B4FEAEE26C912ED12FF1246619B
:1053000017611868CBF81850CAF8141003F0FEFDA6
:105310004FF06E5103F04EFE474A484B1060054671
:1053200001461C68464E03F045FE294603F042FE46
:1053300021460546204603F03DFE214603F03AFE95
:105340000146284603F02EFD3E4B04464FF07C51AB
:10535000186803F02FFE0146204603F02BFE04F0F0
:1053600015F83080089803F0CDFD374B196803F02D
:1053700021FE4FF0685103F01DFE4FF07E5103F007
:1053800011FD324B324A1B7810600446002B00F0AE
:105390007483304B186803F0B9FD2F4903F0BEFE4B
:1053A0000546014603F006FE294603F003FE2B499D
:1053B00003F0F8FC099B05464FF08241186803F0A2
:1053C000F9FD0146284603F0F5FD254A254B1060FE
:1053D000064618602449254D304603F0EBFD03F0E6
:1053E000AFFF2349A863304603F098FE1E49214DC4
:1053F00003F0E0FD03F0A4FF1F4B28611D6819E6D0
:105400009C2B002038340020943500209836002052
:1054100078360020C0360020E03600202C360020F0
:105420002C0E0100F43700201A0B00200437002056
:10543000283700208C38002030360020FC2F002038
:105440007A350020F42F002030380020B22B0020C5
:10545000103600204C3400200000FA436F12833ACB
:105460002C3400204C0400200060EA46383600202E
:105470000000A0411C0B0020E03700204037002036
:1054800008350020FDF708F8864A874B10681F682A
:10549000864A874B0697176833F810200492069ABD
:1054A000844C33F812C033F81720834D26882D889A
:1054B000824C05923946824F0197824F0297824F64
:1054C0000397069F2488089100F1010E07F1010857
:1054D00033F81EE033F818B0049F7C4A079206FBAD
:1054E0000EFE05FB0BEB01F1010E069933F81EE0F1
:1054F00000F1020906FB07F704FB0EBE01F1020BE7
:10550000059933F819A033F81BB005FB0C7700F1AF
:10551000030804FB0177069933F8189006FB0AFA92
:1055200000F1040800F1050C05FB0BAA01F1030BC7
:105530004FEAEE2E33F81BB033F8188033F81CC056
:10554000C2F81CE00699089A01F1040E06FB09F95D
:1055500005FB0B9933F81EB001F1050E06FB0CFCA0
:1055600033F81EE0069905FB0ECC02F1030E06FB94
:1055700008F833F81EE005FB0B8802F1020B04FB70
:105580000E9902F1050E33F81BB033F81EE004FB50
:105590000BAA02F1040B4A4A33F81BB004FB0ECCF1
:1055A0004FEAE72EC2F80CE0494A0492454A4FEA16
:1055B000EA2AC2F818A0474A0592434A4FEAE92767
:1055C000576104FB0B88424A069FDFF82CB14FEA73
:1055D000E828C2F814803F4A4FEAEC2CC2F814C005
:1055E000089A07F1060E02F10608871D00F1070C64
:1055F000083033F8179033F81CC033F8187033F8BC
:10560000100033F81EE001F10708083106FB09F924
:1056100033F811A033F8188006FB0CF106FB00F6F6
:10562000D01D083233F810C033F812302A482B4A04
:10563000069005FB0E9905FB0A6604FB079904FB1F
:10564000036605FB08114FEAE92303611778DFF8C9
:10565000ACA0234B04FB0C11C912F612CBF81810A6
:10566000CAF814601868002F40F00282001103F09D
:105670004DFC1C4903F052FD4FF07E5103F092FBAC
:10568000099B196803F096FC174A184B1060184ADA
:1056900018604FF07E54174B1460002206461A80A3
:1056A000AFE400BF9C2B002038340020DC37002002
:1056B0002C0E01002C3600201A0B002094350020FF
:1056C00078360020C0360020E036002098360020D2
:1056D000F43700200437002028370020B22B0020A8
:1056E0004C3400203333A3402C3400204C040020E1
:1056F000103600207A350020403700200835002081
:10570000FDF786F8BC4BBD4A1C681068BC4ABD4B0F
:10571000116806912746BC4C04972688BB4C33F889
:1057200017A022880892BA4F33F811200797114624
:105730003A46B84F0197B84F049C0297B74F03976A
:10574000471C04F1010CB64D33F817702D8833F85F
:105750001CB0089C33F810E006FB07F705FB0B7B39
:10576000069F013700F1020833F8177033F81890DC
:1057700004FB07B7049C06FB0EFE04F1020B089C19
:1057800005FB0AEA04FB01A100F1030C049C33F8B9
:105790001BA033F81C80059106FB09F905FB0A994B
:1057A00000F1040C00F1050E04F1030AFF1233F8B6
:1057B0001AA033F81CC033F81EE0D761274604371F
:1057C00006FB08F833F81770069A0899DFF898B2C4
:1057D00005FB0A8804F1050A06FB0CFC05FB07CC57
:1057E00033F81A7006FB0EFE05FB07EE971C02F15C
:1057F000030A33F81770089A33F81AA002FB0799C6
:10580000069A171D01FB0A8833F8177002F1050A82
:1058100001FB07CC33F81A707E4A01FB07EE0599AD
:105820004FEAE12AC2F80CA07E4A04927A4A06990D
:105830004FEAE929C2F818907B4A0592774A4FEA65
:10584000E8275761774A4FEAEC2CC2F814C0764A31
:105850004FEAEE2EC2F814E000F1060C00F1070E3C
:10586000724A33F81CC033F81EE00830274633F87C
:105870001090106806372246083233F8177001F18D
:10588000060806FB0CFC33F8121033F8188005FBF1
:1058900007CC06FB0EFE069F06FB09F605FB01661C
:1058A00004F1070A089933F81AA007F10709083725
:1058B00001FB08CC5E4933F81920069133F8173004
:1058C000089C5C4F05FB0AEE04FB02EE04FB03663A
:1058D000DFF898A14FEAEC234FEAEE22F6120B61B3
:1058E000CBF81820CAF8146003F010FB4FF06E518B
:1058F00003F060FB504A514B1060054601461C689E
:1059000003F058FB294603F055FB21460546204687
:1059100003F050FB214603F04DFB0146284603F0FF
:1059200041FA474B04464FF07C51186803F042FBA4
:105930000146204603F03EFB03F028FD414B388032
:105940001F78414B1868002F3AD14012013003F004
:10595000DDFA099B196803F02DFB3C4B3C4A1860AB
:105960003C4B10604FF07E5406461C60FFF749BB6D
:10597000394B099320464FF066511C4603F01AFB41
:105980002060FFF74DBA0020FFF722BA2F4B3149B4
:105990001E68204B01931E4B07931F4B02931F4B16
:1059A0000393204B274A04931F4B0593204B0C680D
:1059B00017780693DFF8B0B0DFF8B0A0FFF721BB8F
:1059C00003F0A4FA254903F0A9FB254B044618600F
:1059D000014603F0EFFA214603F0ECFA214903F007
:1059E000E1F9099B04464FF08241186803F0E2FA9E
:1059F00001462046AFE700BF383400209C2B002032
:105A0000DC3700202C0E01002C36002094350020BD
:105A10009836002078360020C0360020E03600207E
:105A20001A0B0020F4370020043700208C380020A7
:105A3000283700207A35002030360020FC2F002047
:105A4000F42F0020B22B00204C3400204C04002006
:105A50002C34002010360020003500200000FA43CE
:105A6000A83500206F12833A403700200835002007
:105A7000801003F04BFA0C49FCE50C4B18684012FF
:105A8000013003F043FA099B196803F093FA084ABE
:105A9000084B106006461860FFF7B6BA801003F096
:105AA00035FA0149FFF789BACDCC8C3F4C34002040
:105AB0002C3400204C040020124B1B68082B06D805
:105AC000DFE803F00C05151D0505130506007047FA
:105AD0000D4B0E4A5B689B10136070470A4B0C4AD3
